S01700004144584C3334355F4558414D504C452E73726563DD
S1130000602A0020CD040000C9040000C9040000D7
S113001000000000000000000000000000000000DC
S1130020000000000000000000000000C9040000FF
S11300300000000000000000C9040000C904000022
S1130040C9040000C9040000C9040000C904000078
S1130050C9040000C9040000C9040000C904000068
S1130060C9040000C9040000C9040000C904000058
S1130070C9040000C9040000C9040000C904000048
S1130080C9040000C9040000C9040000C904000038
S1130090C9040000C9040000C9040000C904000028
S11300A0C9040000C904000010B5064C2378002BD5
S11300B007D1054B002B02D0044800E000BF012308
S11300C0237010BDB009002000000000EC8900007E
S11300D0084B10B5002B03D00749084800E000BFC7
S11300E007480368002B00D110BD064B002BFBD042
S11300F09847F9E700000000B4090020EC890000EB
S1130100EC89000000000000F0B583B007000C008B
S113011015001E0000680B4B9847002801D1002EE3
S113012001D103B0F0BD38686B46DA1D2100064BDF
S113013098470028F5D16B4607331B78AB42F0D0C3
S11301400530EEE76D0400005504000010B50A0008
S113015000680021014B984710BDC04655040000BB
S113016000B583B001606B46D91D064B9847002843
S113017005D16B4607331B78E52B00D0043003B060
S113018000BDC0464D01000010B50A0000682C21D6
S1130190014B984710BDC0466D04000010B50A001D
S11301A000682D21014B984710BDC046550400003E
S11301B010B50A0000682D21014B984710BDC046B8
S11301C06D04000010B50A0000683021014B984707
S11301D010BDC0465504000010B50A00006806238F
S11301E03221014CA04710BDA1040000F0B585B038
S11301F00400012300222D21594DA847002810D1C5
S11302006B46DD1D574E584F29002000B04700288B
S113021007D12B787F2B06D902A92000B8470028E4
S1130220F2D005B0F0BD012300221D2120004C4D69
S1130230A8470028F5D1012300221E212000484DA3
S1130240A8470028EDD1012300221F212000444D9E
S1130250A8470028E5D10123002220212000404D99
S1130260A8470028DDD101230022212120003C4D94
S1130270A8470028D5D10123002222212000384D8F
S1130280A8470028CDD10123002223212000344D8A
S1130290A8470028C5D10123002224212000304D85
S11302A0A8470028BDD101230022252120002C4D80
S11302B0A8470028B5D10123002226212000284D7B
S11302C0A8470028ADD10123002227212000244D76
S11302D0A8470028A5D10123002228212000204D71
S11302E0A84700289DD101230022292120001C4D6C
S11302F0A847002895D1012300222A212000184D67
S1130300A847002800D08CE701230A222C212000D2
S1130310134DA847002800D083E7012300222E2193
S113032020000F4DA847002800D07AE701230022BF
S11303302F2120000A4DA847002800D071E701238F
S1130340002231212000064DA847002800D068E78C
S11303500123002238212000014CA04761E7C04658
S113036009010000C5010000D901000010B50A0010
S113037000683821014B984710BDC0466D04000049
S113038010B50A0000683921014B984710BDC046DA
S11303905504000010B582B004006B46D91D074B0C
S11303A09847002801D002B010BD6B46D9790823C4
S11303B019432000024B9847F5E7C0469D01000011
S11303C0B101000010B582B00C006B46D91D064B7C
S11303D098470023002803D16B46DA791F23134082
S11303E0237002B010BDC0468103000010B582B076
S11303F00C0069460B4B9847002811D16B465A787C
S113040012021B78134323806B46DA7812029B781E
S1130410134363806B465A7912021B791343A380FA
S113042002B010BDD901000070B50C0015001E000B
S11304300160828083600800044B984732002900E1
S11304402000034B9847002070BDC04649070000B8
S11304505507000010B500680123034CA04703238F
S1130460C0170340180010BD6907000000B585B02F
S113047003AB19705A70828869460A80022201927D
S1130480054A4A8002930068044B98470323C01727
S11304900340180005B000BD0080FFFFB107000055
S11304A010B50068024CA047C00F400010BDC04604
S11304B06907000010B5024B9847024B984710BDDE
S11304C08D060000E1140000FEE7000010B5174A95
S11304D0174B9A4211D01A00164B9A420DD2164A63
S11304E003339B1A9B0801339B00002210480F49D9
S11304F08C58845004329A42FAD1104A104B9A42D2
S11305000AD2D3430E495B1803218B4304339B184F
S1130510002102C29342FCD10A4AFF210A4B8B43B9
S113052093600A4B98470A4B9847FEE7EC89000012
S113053000000020B009002004000020B0090020C1
S11305405C0A002000ED00E000000000992D00008E
S1130550C112000070B5124BDE20195C04229143D5
S11305601954195C0125A94301242143C9B2195422
S11305701F38195C0F26B1430D3E31431954DF2156
S11305805E5C96435E545A5CAA432243D2B25A54E8
S11305901A5CD0390A4011310A431A5470BDC0465E
S11305A000600041064B4021C42299500331083AAF
S11305B09950044AD3693F390B43D3617047C0460D
S11305C0001C00400008004010B5044B9847044943
S11305D00448054B9847054B984710BDA5050000F6
S11305E000080042140A0020090700005505000015
S11305F030B5114BAC225200995C0125A94301246A
S11306002143C9B299549E204000195C4A3AFF3AEA
S113061091430C3A114319545A21FF315A5CAA43AD
S11306202243D2B25A541A5C4B39FF390A40213161
S11306300A431A5430BDC04600600041064B4021B5
S1130640D02299500331143A9950044AD36923397A
S11306500B43D3617047C046001C004000080040B3
S113066010B5054B9847002204490548054B9847A7
S1130670054B984710BDC0463D06000000140042DB
S1130680080A002009090000F105000010B5034B19
S11306909847034B9847034B984710BDC509000082
S11306A0C90500006106000010B584B0140001AB58
S11306B01438828B1A800294054A5A8003911900D7
S11306C0044B9847002800D1200004B010BDC04658
S11306D00080FFFF890D000010B584B0140001AB49
S11306E01438828B1A800294054A5A8003911900A7
S11306F0044B9847002800D1200004B010BDC04628
S11307000180FFFF890D000070B504000D00431E39
S11307109841C0B25E220749074B98472900200040
S1130720064B9847002803D1054BA361054B636131
S113073070BDC0466084000081090000D50C000033
S1130740D9060000A906000010B5014B984710BD5A
S1130750050D00008905890D8023DB001A400A433A
S1130760828310007047000070B586B00400160044
S11307701D006B46D971073303A9828B0A800122BD
S11307804A6000224A808B60074B9847002801D0BA
S113079006B070BD03A9054B4B808E604D602000F0
S11307A0014B9847F4E7C046890D00000180FFFF24
S11307B010B5014B984710BD890D000070B50600B7
S11307C00C00150000280DD00800431E9841C0B24B
S11307D034220549054B984733682A00210030002C
S11307E0984770BD0020F3E77C8400008109000075
S11307F070B506000C00150000280DD00800431E3B
S11308009841C0B23D220549054B984773682A00B8
S113081021003000984770BD0020F3E77C8400007D
S113082081090000F8B5CE46474680B504000F00A4
S11308309046002826D0002926D01000431E984157
S1130840F1221249124B98470834124D2000A84750
S11308500028FBD00026104B99460E4DB95D2000B0
S1130860C8472000A8470028FBD001364645F5D3E9
S11308700A4D2000A8470028FBD030000CBC90464D
S11308809946F8BD0020DBE70020D9E790840000FA
S113089081090000B50C0000A50C0000BF0C00008D
S11308A0F8B5CE46474680B504000F0090460028B0
S11308B01DD000291DD01000431E984186225200ED
S11308C00D490E4B9847002608340D4D0D4B9946A3
S11308D02000A8470028FBD02000C847B85501369F
S11308E04645F5D330000CBC90469946F8BD00202F
S11308F0E4E70020E2E7C04690840000810900009C
S1130900C90C0000AD0C000070B505000C000028F7
S113091013D00800431E9841C0B234220849094B41
S11309209847280008302100074B9847002803D136
S1130930064B6B60064B2B6070BD0020EDE7C04694
S11309409084000081090000650C0000A1080000EB
S11309502508000010B50400431E9841C0B253227C
S11309600449054B984720000830044B9847002061
S113097010BDC0469084000081090000910C000065
S1130980002800D100BE70470300064A1268002AFE
S113099004D0044A1068C318136070470249014A1E
S11309A01160F6E7CC090020602A002001204042B3
S11309B0704780239B014B600020704701207047E3
S11309C00020704710B5094B5A685A600220084B42
S11309D09847084B9847084B9847084B9847084B4B
S11309E098471F20074B984710BDC0460040004160
S11309F08D0A0000390A0000510A0000290A00008B
S1130A00890A0000090A0000C30707D5044A054BF8
S1130A101A6219007D224B681A42FCD17047C04605
S1130A2005010100001C0040024B08229A71073A9C
S1130A301A71704700080040044BDA69F821490133
S1130A400A40DA6101221A747047C046001400405B
S1130A5082220C4B1A7518003821803A435C1342E9
S1130A60FCD108491022CB681A42FCD0054A137DF8
S1130A7080210B431375100048390E22435C134246
S1130A80FCD170470010004070470000094B9B7870
S1130A900322134098420BD0064AFF2393719378A4
S1130AA003218B430840184390709379002BFCD0AA
S1130AB07047C0460004004010B5094B9C46604492
S1130AC0800AC0B2012808D0E6229200054900201D
S1130AD0054B98470120404210BD0020FCE7C0466A
S1130AE000FCFFBDC48400008109000070B505004E
S1130AF00C000800314B9847C0B2E369DB0721D4EE
S1130B0043001B18DB002E4AD31859681C231940D4
S1130B100322E3691A42FCD123689B070BD523689F
S1130B200222934323600132E3691A42FCD1022278
S1130B30E3691A42FCD101230B4323600322E369D6
S1130B401A42FCD10122E3691A42FCD143001B186A
S1130B50DB001B4AD318596821600322E3691A4257
S1130B60FCD143001B18DB00154AD3189B68636053
S1130B700422E3691A42FCD143001B18DB00104A2B
S1130B80D318DB68E3608901890FA981636A0D4E7C
S1130B901E4001238B429B415B429B0333436362B0
S1130BA00422E3691A42FCD143001818C000044B24
S1130BB01818438AEB81002070BDC046B90A0000B2
S1130BC0AC840000FFBFFFFF10B504001F4BC31827
S1130BD09B0ADBB2042B04D01D4A1E4900201E4B85
S1130BE09847E369DB0718D40322E3691A42FCD16E
S1130BF023689B070BD523680222934323600132A9
S1130C00E3691A42FCD10222E3691A42FCD10523AA
S1130C1023600322E3691A42FCD10122E3691A42E8
S1130C20FCD10E4B23600322E3691A42FCD1C0239A
S1130C309B0263600722E3691A42FCD1084BA3813B
S1130C400023A3733022A354002010BD00FCFFBD79
S1130C503A020000C484000081090000040031400D
S1130C60098AFFFF70B505000C00431E9841C0B20D
S1130C70B4220449044B98472C602000034B984746
S1130C8070BDC046C484000081090000C90B000087
S1130C900268136802210B4313600131D3691942BE
S1130CA0FCD17047036889B2198570470368188DB1
S1130CB0C0B270470368187E012318407047036868
S1130CC0187E8007C00F70470368187E4007C00F66
S1130CD07047000070B504000D00431E9841C0B277
S1130CE0044A0549054B9847256129002000044B17
S1130CF0984770BD07050000C48400008109000006
S1130D00ED0A000070B504001A4D431E9841C0B2AC
S1130D10194A2900194EB04724692000431E9841FE
S1130D20C0B2174A2900B047236802221343236044
S1130D300132E3691A42FCD104250422032010265F
S1130D401049E3691A42FCD1638B1B090340012B50
S1130D500AD001390029F4D1013D002D06D0668363
S1130D60E3691A42FCD1EBE7002070BD0620404243
S1130D70FBE7C046C484000024050000810900008C
S1130D80F4050000FFFF0000F0B5DE4657464E466E
S1130D904546E0B583B00500884604690600731E25
S1130DA09E41F3B20193B44FB44A39001800B44ED3
S1130DB0B0472869431E9841C0B2B822D200390016
S1130DC0B0474046431E9841C0B2AE4A3900B047CE
S1130DD06B88DB0500D524E243465A8880235B00F8
S1130DE01A4341464A802A00C1C9C1C262681343FA
S1130DF063600422E3691A42FCD12F693B68994677
S1130E00A14A9D4901989E4B98476B68012B5AD083
S1130E107B689E4A13407B600422FB691A42FCD122
S1130E202B885A055CD56A88D20704D56A88802144
S1130E30C9000A436A805B00954919400422FB6992
S1130E401A42FCD17B6A8022D2011A4080231B0201
S1130E501343194379620422FB691A42FCD12969BC
S1130E600B7EDBB28B4A0320184204D10B7EDBB22B
S1130E70013A002AF8D13E680421FA691142FCD1F2
S1130E807A8B92B2D90700D4A0E093073ED5012310
S1130E903B766B88802149010B436B806B887E49CC
S1130EA00B406B8001200300134058425841053821
S1130EB06B88794A13406B8003B03CBC90469946DA
S1130EC0A246AB46F0BD4B461B01A1D57A688023F0
S1130ED0DB0213437B600422FB691A42FCD19FE7C7
S1130EE06A885B00FF210B40FE391140194304223C
S1130EF0FB691A42FCD17B6A8022D20113400B4366
S1130F007B620422FB691A42FCD1A8E753071BD475
S1130F106B885B0535D52B88DB0906211940042233
S1130F20FB691A42FCD17B6A8022D2011340F12270
S1130F3013430B437B62ED3AFB691A42FCD16B8885
S1130F40564A13406B8066E06B68002B04DD6B88A7
S1130F508022520113436B806B881BB2002B06DB8B
S1130F606B884D4A13406B8002204042A0E77A68A8
S1130F70C0239B0213437B600423FA691342FCD110
S1130F80EEE76B68002B12D16B881BB2002B04DBDD
S1130F906B88414A13406B803DE07A68C0239B0212
S1130FA013437B600422FB691A42FCD1F0E7AB686F
S1130FB01A782823FA540422FB691A42FCD1AB683C
S1130FC00133AB606B68013B6B6024E09B0722D567
S1130FD06B68002B40D052073ED43601F60F013B1C
S1130FE06B60002B00D01FE1002E00D122E16B8842
S1130FF01BB2002B1DDB6B88274A13406B80A9684A
S11310004B1CAB600422FB691A42FCD12823FB5C15
S11310100B7002233B76002680235B009A46032153
S11310200422FF3B9C460133994626339B46019696
S1131030C2E07B68184A13407B600632FF32FB69CA
S11310401A42FCD17A68C0239B0213437B600422BA
S1131050FB691A42FCD1CEE702233B7602204042D0
S113106026E76268C0239B02134363600422E3699A
S11310701A42FCD1B5E0C046C4840000BF0500009C
S113108081090000C105000094050000FFFFFBFF7B
S1131090FE070000FFFF0000FFFEFFFFFFFBFFFF56
S11310A002421BD16B885B0535D52B88DB090620F2
S11310B01840E3691A42FCD1636A8026F601334082
S11310C0F126334303436362E3691A42FCD16B881C
S11310D0784803406B80002301936DE06B68002B1C
S11310E004DD6B888020400103436B806B881BB256
S11310F0002B07DB6B88704803406B8002235B4244
S1131100019359E06068C0239B0203436360E36971
S11311101A42FCD1EEE76B68002B13D16B881BB22B
S1131120002B06DB6B88644803406B80002301932B
S113113042E06068C0239B0203436360E3691A4290
S1131140FCD1EFE7AB681B7858462354E3691A4295
S1131150FCD1AB680133AB606B68013B6B6000236F
S1131160019329E0002601964E461E4224D06B6866
S1131170002B4DD002424BD1FF0E60460740013B8D
S11311806B60002B00D082E0002F00D185E06B88DB
S11311901BB2002B2CDB6B88474803406B80A8688C
S11311A0431CAB60E3691A42FCD15B46E35C037009
S11311B04B462376002301936B88504603422DD07F
S11311C02E69337EDBB23D48194241D1337EDBB216
S11311D001380028F8D143465B881BB2002B00DAA3
S11311E03FE76B88344A13406B800520404263E636
S11311F06368314803406360E3691A42FCD1606864
S1131200C0239B0203436360E3691A42FCD1C2E733
S11312104B46237602235B420193CDE7019E3000C7
S11312204AE60620404247E6012B00D0E7E6002EBE
S113123000D1E4E67A688023DB0213437B60042256
S1131240FB691A42FCD16B68002B00D1CFE6D6E6CD
S11312502768E0690242FCD1608B80B266461E4278
S113126000D17FE74B46034200D119E726766B880D
S11312708026760133436B806B880F4E33406B803E
S11312806346184046424641731F019394E7012B7D
S113129000D084E7002F00D181E760688023DB025F
S11312A003436360E3691A42FCD16B68002B00D1ED
S11312B06DE774E7FFFBFFFFFFFEFFFFFFFF00008A
S11312C0F0B5DE46574680B58DB0434B984743484A
S11312D0434EB04780231B015322424908A8424C85
S11312E0A047424D43425841C0B245222900404CD8
S11312F0A04708A90BA83F4B98470BA83E4B98471B
S113130043425841C0B24D222900A0470A210BA8EC
S11313103A4B984743425841C0B251222900A04752
S113132041210BA8364B984743425841C0B255223D
S11313302900A0473348B0470BA8334B9847434292
S11313405841C0B25E222900A0470023039300271E
S11313502E4B9B4628E0D2B20392002B39DD3D0090
S11313602B4B9A46224E06AC21000BA8D047434291
S11313705841C0B26E221D49B04701350022A35E18
S11313800421625E01920221625E00922A000399A6
S11313902048214CA047EA1B0F2302A98C46634432
S11313A01B789A42DFDB2F000F2402AB9C46644477
S11313B021000BA8D84743425841C0B266220B49CA
S11313C00B4B9847237803990A1C9942C3D21A1CE1
S11313D0C1E73D00E7E7C046B5040000E084000033
S11313E0BD2F0000140A0020290400000485000019
S11313F08109000061010000ED0100008901000085
S11314006D0300001085000095030000C503000073
S1131410ED03000034850000F92E000010B50B0028
S1131420002809D111001800054B9847002800DB5B
S113143010BD01204042FBE701204042F8E7C046CE
S11314409914000010B50B000138022809D81100C6
S11314501800054B9847002800DB10BD01204042CE
S1131460FBE701204042F8E7BD14000070B5060018
S1131470064D2B6898680021054CA0472B685868D6
S11314800021A047034B1E6070BDC0460000002031
S1131490D12F0000D009002010B50400054B1868B6
S11314A0002804D08AB22100034B984710BD0020C5
S11314B0FCE7C046D0090020F107000010B5040085
S11314C0054B1868002804D08AB22100034B9847C2
S11314D010BD0020FCE7C046D0090020BD07000075
S11314E010B5044C2000044B98472000034B984748
S11314F010BDC046080A0020550900006D14000004
S1131500002243088B4274D303098B425FD3030A3E
S11315108B4244D3030B8B4228D3030C8B420DD351
S1131520FF22090212BA030C8B4202D312120902DF
S113153065D0030B8B4219D300E0090AC30B8B421D
S113154001D3CB03C01A5241830B8B4201D38B03CB
S1131550C01A5241430B8B4201D34B03C01A524170
S1131560030B8B4201D30B03C01A5241C30A8B42B3
S113157001D3CB02C01A5241830A8B4201D38B029E
S1131580C01A5241430A8B4201D34B02C01A524142
S1131590030A8B4201D30B02C01A5241CDD2C309B4
S11315A08B4201D3CB01C01A524183098B4201D330
S11315B08B01C01A524143098B4201D34B01C01A1B
S11315C0524103098B4201D30B01C01A5241C30893
S11315D08B4201D3CB00C01A524183088B4201D302
S11315E08B00C01A524143088B4201D34B00C01AEE
S11315F05241411A00D20146524110467047FFE75A
S113160001B5002000F006F802BDC0460029F7D05D
S113161076E770477047C046002B11D1002A0FD1DE
S1131620002900D1002802D00021C943081C07B4B6
S1131630024802A14018029003BDC046D9FFFFFF33
S113164003B4684601B5029800F006F8019B9E4673
S113165002B00CBC7047C046F0B557464E464546EE
S1131660DE46E0B5040083B00D00924699468B42F5
S11316702FD82CD04946504601F082FA29000600A2
S1131680200001F07DFA331A9846203B9B4600D592
S113169074E053465A4693401F00534642469340D3
S11316A01E00AF4229D826D05B46A41BBD41002BA7
S11316B000DA79E0002200230092019301235A46C4
S11316C093400193012342469340009319E08242E0
S11316D0D0D900220023009201930C9B002B01D04F
S11316E01C605D600098019903B03CBC904699462B
S11316F0A246AB46F0BDA342D6D9002200230092F5
S113170001934346002BE8D0FB0772081A43464670
S11317107B080EE0AB4201D1A2420CD8A41A9D4131
S1131720012024196D410021013E24184D41002E51
S113173006D0AB42EED9013E24196D41002EF8D1FA
S11317405B460098019900196941002B22DB2B00AC
S11317505A46D3402A004446E2401C005B4615002A
S1131760002B2CDB26009E40330026004746BE405B
S11317703200801A994100900191AEE7424620233D
S11317809B1A5246DA40414613004A468A401700E3
S11317901F4382E7424620239B1A2A0046469A406A
S11317A02300F3401343D5E74246202300219B1A2C
S11317B00022009101920122DA40019282E742461E
S11317C0202326009B1ADE402F00B446974066462D
S11317D03B003343C9E7C046F0B557464546DE46AD
S11317E04E46E0B54C000E0387B0834692461D007A
S11317F08046360B640DCF0F002C4FD06F4B9C42AC
S113180035D08023420F1B04F6001343334399461B
S1131810C30098466A4B00269C4600236444039305
S11318202B031B0B9B466B00ED0F50465B0D019584
S11318305ED0624A934253D05A46D1008022400F70
S1131840120402430A4393465246D1005C4A94462A
S1131850002263443800684084460290E41A164328
S11318600F2E00D9B4E0574BB6009B599F46030096
S1131870334399466CD100239846023308260393D8
S1131880CEE7CB464146039A0197022A65D1019BD4
S11318904A4C9C460023002298466BE003003343E5
S11318A099464ED0002E00D1BCE1300001F04AF937
S11318B003000B3B1C2B00DDACE11D22D31A5A465E
S11318C00100DA4008398E401300334399465B46E1
S11318D08B40984600233C4C0026241A03939FE730
S11318E051465A46114329D1002293460232B1E7A8
S11318F0594601431ED05B46002B00D19EE1584659
S113190001F020F903000B3B1C2B00DD8FE10200EA
S11319105946083A91408B461D21CB1A5146D9406D
S11319200B0059460B4351469B469140264B0022DF
S11319301B1A8FE7002301229B468BE751460322A3
S113194088E700239846013304260024039367E7BD
S11319500323B14603930C2662E7032A00D15CE219
S1131960019B012A00D0E4E113409C46002300249B
S11319700022984600211203130B0A0D12051A4384
S11319802305124C40462240134362465B00D207B3
S11319905B081343190007B03CBC90469946A24625
S11319A0AB46F0BD002380229C4612039846034CAC
S11319B0E0E70023014C00229846DBE7FF07000024
S11319C001FCFFFF508500000DFCFFFFFFFF0F80AF
S11319D0D94500D939E100D134E1002346464D46CA
S11319E09A46013C5B460A0E1B021A430B02170C73
S11319F0039313041B0C3900280090460193FFF74E
S1131A007FFD0200019B83465A432800390091461A
S1131A10FFF7FCFD350C09040D43A9450DD95B46C0
S1131A204544013BA84500D93AE1A94500D837E12E
S1131A3002235B429C464544E3444B46EB1A39007F
S1131A4018000493FFF75CFD019B05004343390034
S1131A5004989946FFF7DAFD330409041B0C0B4381
S1131A60994509D943446A1E984500D91AE1994514
S1131A7000D817E1023D43444A469B1A5A461204D1
S1131A802A4303999346100C0A0C914609045A46BA
S1131A90090C4E460D001204120C454305915143A6
S1131AA07243704352190E0CB218954203D9802523
S1131AB06D02AC466044150C09041204090C281884
S1131AC05218834200D2CEE000D1C8E01D1A53461A
S1131AD09E1AB24592415242AB1A9A46984500D199
S1131AE017E139001800FFF70BFD019B0500434384
S1131AF0390050460493FFF789FD04980B04310C18
S1131B001943884209D941446B1E884500D907E12D
S1131B10884200D804E1023D4144049BCB1A1800DA
S1131B2039000493FFF7ECFC019B824643433900E0
S1131B3004980193FFF76AFD01980B043104090C22
S1131B40194388420DD953464144013B884500D985
S1131B50E8E0884200D8E5E002235B429C46414429
S1131B60E244019B2D04CE1A51462943059D4F465C
S1131B702A000B04080C1B0C5A4345437B4378434F
S1131B805B19170CFB189D4203D980256D02AC46E6
S1131B9060441D0C12041B04120C28189B18864266
S1131BA000D293E000D18EE001231943A04BE31847
S1131BB0002B00DC99E04A0700D09EE05A46D2018F
S1131BC006D55A469B4B1A4080239346DB00E31804
S1131BD0994A934268DD0123029A984C1A400023E3
S1131BE0944698460022C5E680224B4612031342CF
S1131BF00AD05B46134206D11A431203120BAC46B9
S1131C0088468E4CB6E64B461A431203120BBC466A
S1131C108A4CAFE603005A46283B9A40002391467B
S1131C20984657E6584600F08DFF203040E6030002
S1131C305246283B9A400021934677E600F082FF03
S1131C4020305FE6884500D2C7E64B46DE075D08D4
S1131C5043465B081E434346DB079A46C2E600251B
S1131C60924500D333E7039E5946B446E244B24555
S1131C70AD416D424544EB180139984507D298426D
S1131C8000D97FE000D1BCE01D1A8B461FE79845C0
S1131C90FAD1039D5545F2D943468B461D1A16E7E2
S1131CA09B46CAE61500E7E65A46C90852070A43A6
S1131CB05B0590465C0D5A46012302995202194075
S1131CC0120B8C4656E6002B00D16FE746444A1EA1
S1131CD0B04529D91100864200D065E7039A9342A2
S1131CE000D061E762E7012149420120C21A382A83
S1131CF021DD029B03409C4638E60F220A40042A59
S1131D0000D15BE70A00111D914292415242934473
S1131D1054E7474BE318002BE5DD01225242F2E77A
S1131D201D00FAE69A461CE7B04239D86ED011007D
S1131D303AE702933AE71F2A3CDC20239B1A0C0063
S1131D405846994098404B1E99415B46D440D34035
S1131D50204308431A00430709D00F230340042BF0
S1131D6005D00100081D88429B415B42D218130232
S1131D703AD50123029A01241A4000239446984636
S1131D800022F7E5022149428C46039DE344AC4618
S1131D90E244AA45AD416D424544ED182D1A96E63C
S1131DA08A1E03994D008D42894149424144761867
S1131DB003958FE71F204042C31A5846D8400300BA
S1131DC0202A28D040205D46821A954029434A1E85
S1131DD091411943072300220B4009D00F2300220D
S1131DE00B400800042BBDD1010053075202120B13
S1131DF0C9081943012388460299002419408C46D6
S1131E00B8E55245BED88B46002560E6039D9D4249
S1131E10C6D3110062E70025D8E780225B4612038F
S1131E201A43019B1203120B9C468846034CA1E5FE
S1131E30FF030000FFFFFFFEFE070000FF07000096
S1131E40F0B557464546DE464E46E0B50C03984687
S1131E504E00230B87B0070092469B46760DCD0FAC
S1131E60002E6BD06D4B9E4235D080245B46420FD2
S1131E702404DB0014431C43C3009946684BA34667
S1131E809C46002300276644029343461C035A00E1
S1131E90DB0F5046240B520D984600D176E05F4B81
S1131EA09A426DD08023410F1B040B435C49E4002C
S1131EB08C461C43C300002062444146B618694066
S1131EC0721C0191944607430F2F00D9B0E0554A84
S1131ED0BF00D25997465B460343994600D087E03A
S1131EE000239B46023308270293CEE74246019221
S1131EF0022867D0032800D10EE2012800D062E155
S1131F00002300240022994601990140CDB200210A
S1131F1012030B0D120B1B051343434A24051340F4
S1131F201C436400ED0764082C434846210007B0B5
S1131F303CBC90469946A246AB46F0BD0343994645
S1131F404FD05B46002B00D189E1584600F0FAFDE2
S1131F5003000B3B1C2B00DD7AE11D22D31A3A004F
S1131F6001005C46DA4008398C4013008F4023435B
S1131F709B46B94600232D4E0027361A029384E768
S1131F80534623432AD10024022096E75346234391
S1131F9020D0002C00D157E1200000F0D3FD030035
S1131FA00B3B1C2B00DD49E11D21CB1A51460200DD
S1131FB0D9405346083A944093400C431B4A121AA2
S1131FC000207AE70125019B144C1D4000230022C8
S1131FD099469CE70024002201206EE75346032023
S1131FE06BE700239B4601330427002602934CE74A
S1131FF0032381460C27029347E780220023002510
S113200012039946054C82E75C464B4602986FE7FB
S11320105C464B46019502986AE7C046FF070000FC
S113202001FCFFFF90850000FFFF0F800DFCFFFF08
S11320304A464946170C1A0C1B041B0C08041900C9
S1132040000C41431500884619007D4379430395EC
S113205089462900150045434D44029545462D0CFB
S1132060AA46029D5544A94506D98A4680214902BB
S11320708946CA4451460391290C049141460904F6
S11320802D04090C88462900250C24044144240C01
S11320900591210041438846210079438A466843DB
S11320A0414650448146080C48446F43824503D955
S11320B08021490289464F44010C8946390049442C
S11320C0029141460F0404993F0C88460004C0194C
S11320D080444146049159460F0C0904090C884672
S11320E059438A4639005143894641464A43514639
S11320F0090C8B467B43D2185A44934203D980235C
S11321005B029B46D94451460904090C8A46414660
S113211061437C43130C12044B445244A1468A4647
S11321203C0041466C434D4351464D440F0C7D19D0
S1132130A94503D98021490288464444049F039950
S1132140B84641448B4683458041414288465146C6
S113215008042F04000C3F185846029910188946A9
S1132160904292414F44BA46524299469346C244E1
S1132170D144CB448F42BF41C245894199459B41DB
S1132180934592417F4249422D0C52420F435B4298
S113219013437F19FF185B463C19DB0D059A640253
S11321A01C43430213435D1EAB415A46C00D034317
S11321B052021343E20156D501205A080340134347
S11321C0E207134364085A48604400284DDD5A0767
S11321D009D00F221A40042A05D01A1D9A429B41A5
S11321E05B42E4181300E20104D58020514AC00088
S11321F014406044504A904200DDE3E60125DB08C8
S113220062071A436402019B9146220B4405640D44
S11322101D407CE6802259461203114208D0144224
S113222006D122431203120B45469946434C6EE6EF
S11322305B461A431203120B404C68E603005446F3
S1132240283B9C400023B9E600F07CFC2030A6E645
S11322500300283B9F400023BB4699468AE600F0D2
S113226071FC203074E6B446ADE701252A1A382AF9
S113227006DD019B00241D4000230022994646E60A
S11322801F2A21DC20252000AD1A1E00AB40A840E7
S1132290D6405D1EAB4130431843D440430709D0B8
S11322A00F230340042B05D00300181D98429B41C3
S11322B05B42E418230221D50125019B01241D4022
S11322C000230022994622E61F2521006D42281A88
S11322D0C1400800202A1DD05F35AA1A9440234328
S11322E05C1EA341072503431D400022002D09D095
S11322F00F2200241A401800042AD6D103006507CF
S11323006402220BDB082B4301259946019B002420
S11323101D40FCE50024E2E780220125120322434C
S113232001991203120B0D409946044CEFE5C04687
S1132330FF030000FFFFFFFEFE070000FF07000091
S1132340F0B54646D6464F460C03C0B5CD0F4E00F9
S1132350610A440F0C43C1005800400D84468A466C
S11323600F001903500F490A0143C648760DA846C9
S1132370DB0FD200844500D1D8E001204340AB42BA
S113238000D1A6E06046351A002D00DC05E10028E6
S113239010D10B00134300D1D7E06B1E002B00D0EB
S11323A04BE153469F1ABA458041641A4042241AAD
S11323B001261EE0B34B9E4248D080231B041943E0
S11323C0382D00DD19E11F2D00DD4CE120230F0025
S11323D05B1B10009A409F40E840531E9A41E9401D
S11323E0074317435346DF1B611ABA45A4416442AD
S11323F00C1B230200D4C5E06402650A002D00D141
S1132400F6E0280000F09EFB0300083B1F2B00DDD4
S1132410E9E020223C00D21A9D40D4409F4025434D
S11324209E4200DDDBE09E1B731C1F2B00DD0AE1D6
S113243020223800D21A290097402C009140D8401D
S11324407A1E9741DC40002601430F437B0709D0E5
S11324500F233B40042B05D03B1DBB42BF417F42B1
S1132460E4191F00230225D5864B01369E4200D174
S1132470AFE0854B01251C4043466207FF08640218
S113248076051743240B760D1D4000212403230BEE
S11324900C0D7E4A24051C431440330523435B0082
S11324A0ED075B082B43380019001CBC9046994685
S11324B0A246F0BD012543466207FF081743E4081E
S11324C01D40704B9E4236D024037605240B760DB6
S11324D0DBE76346F31A002B00DC94E06046002837
S11324E035D068488642B1D080273F043943382B21
S11324F000DCFDE00A43170000217A1E974157448F
S113250057458041091944420C1923023AD55D4BC1
S113251001369E4200D14BE101225B4B1C407B08FB
S113252017401F43E207174364088FE7080010436E
S113253000D024E721E723003B4300D1B9E1802206
S1132540120314432403240B9FE72E007EE70800A4
S1132550104300D1CAE0581E8446002800D0E7E0AA
S11325605244524580416418404224181700012601
S1132570230207D50226CFE764462C4300D1B3E1FA
S11325802C0067467B0700D062E76307FF081F4300
S113259001254346E4081D4093E7002D78D1751CBE
S11325A06D056D0D012D00DCF2E05046801A824568
S11325B0BF41651A7F42ED1B8446280200D48CE09B
S11325C05046171ABA4292410C1B5542651B984655
S11325D014E70125434600241D40002755E72A4CF3
S11325E0F61A2C4032E73D0028388540002717E7CB
S11325F0380000F0A7FA203006E70A43170000214C
S11326007A1E9741EEE6002B00D0E5E0731C9C4651
S11326105B055B0D012B00DC9FE01A4B9C4500D150
S1132620C5E0524452458041641840422418E707EB
S1132630520817436408664608E71248854200D1E9
S113264085E01D00BCE629001F3EF140202B00D18F
S11326507FE04022D31A9D402F437D1EAF410024CA
S11326600F4300268EE72B000F00203BDF40202D78
S113267071D040235D1BA9400A43511E8A410021A9
S11326801743AFE6FF070000FFFF7FFFFFFF0F8048
S1132690002E3ED0B34EB44545D0802636046D425C
S11326A03443382D00DDA8E01F2D00DD1FE1202676
S11326B027005046761BB740E84007435046B040D9
S11326C0461EB041EC403843171ABA4292410C1BE3
S11326D05242A41A664698468BE6644667462C43E3
S11326E000D08BE6002500260027EAE61E00ADE6B2
S11326F01F2B60DC2027F81A0F0084468740100047
S1132700D840074360468240501E8241D940174357
S1132710F5E626005046064305D0ED43002DD3D000
S1132720904EB445BDD10C001700664698468DE620
S11327308C4883420BD06346D9E6002D00D096E046
S11327400800104300D1E2E00C0017009846854EC3
S11327507CE6002580E700218EE7230050460343F2
S1132760002E00D0A8E0002B00D1DEE00B001343C4
S113277000D16BE65244524580416418404224180B
S11327801700230200D4FDE6774B66461C405DE645
S1132790250050460543002ECFD1002D4FD10C000B
S11327A0144300D1A0E00C00170098464EE666469C
S11327B00024002785E61F000800203FF84007009A
S11327C0202B00D18EE04020C31A99400A43511EA9
S11327D08A410021174392E6002E14D12600504668
S11327E0064362D0DB43002B5CD1871897429241A9
S11327F064185242A418664687E650462043441E95
S1132800A041002460E7574EB4454ED080263604DC
S11328105B423443382B00DD7FE01F2B00DD8BE06F
S1132820202627005046F61AB740D84007435046A2
S1132830B040461EB0410743DC40BF18D6E70D0048
S1132840154300D102E65046801A8245BF41651AFD
S11328507F42ED1B8446280200D48DE65046171AA9
S1132860BA4292410C1B5242A41A9846EEE50D005E
S1132870154300D16BE750466707C0080743802023
S1132880E4080003044207D0CD08054204D12C001B
S11328909846D70849070F437B0FE4001C43FF0009
S11328A0304ED3E52F4EB445B4D10C001700664624
S11328B0CCE500270024E8E5002B39D00B001343B6
S11328C000D144E7C008670707438020E4080003F9
S11328D00442E1D0CB080342DED1D70849070F43B5
S11328E01C00D9E7002171E700250027E9E52E0047
S11328F02700203EF740202D2FD04026751BAC40EA
S113290050462043441EA04100243843DCE6802482
S113291000252403134E0027D3E550462043070027
S1132920781E87410024BF1860E70C0017008DE56E
S11329300C0017000B4E89E51E002700203EF740CF
S1132940202B0CD04026F31A9C4050462043441EB2
S1132950A04107430024BF1848E70024D0E700241F
S1132960F3E7C046FF070000FFFF7FFF30B5134DBC
S11329700A034B00120B5B0DC90F0024AB4210DDA0
S11329800F4CA3420FDC80240E4D64032243ED1A46
S11329901F2D0BDD0C48C31ADA405442002900D124
S11329A01400200030BD094BCC18FAE7084CE8406D
S11329B0A44663449A400243EFE7C046FE03000086
S11329C01D0400003304000013040000FFFFFF7F18
S11329D0EDFBFFFF70B5002830D0C317C4185C406E
S11329E0C50F200000F0AEF8174B184A1B1AD21A74
S11329F01F2A18DD164AD21A9440002224035B05CC
S1132A00240B5B0D0021100024030A0D240B120576
S1132A102243104C1B05224013435B00ED075B0867
S1132A202B43190070BD210091400A000B21081AA4
S1132A30C4405B052403240B5B0DE3E7002500235E
S1132A4000240022DEE7C0461E0400003304000018
S1132A5013040000FFFF0F8010B5041E28D000F0FF
S1132A6071F8154B154A1B1AD21A1F2A15DD144A80
S1132A70D21A9440002224035B05240B5B0D002131
S1132A80100024030A0D240B120522430D4C1B05D0
S1132A90224013435B00590810BD210091400A00F5
S1132AA00B21081AC4405B052403240B5B0DE6E7E5
S1132AB0002300240022E2E71E0400003304000087
S1132AC013040000FFFF0F808446101C62468C46EE
S1132AD0191C634600E0C0461FB500F0FBF800284F
S1132AE001D40021C8421FBD10B500F055F8404282
S1132AF0013010BD10B500F0EDF8002801DB002016
S1132B0010BD012010BDC04610B500F0E3F8002848
S1132B1001DD002010BD012010BDC04610B500F03D
S1132B2075F8002801DC002010BD012010BDC0464E
S1132B3010B500F06BF8002801DA002010BD012068
S1132B4010BDC0461C2101231B04984201D3000C74
S1132B5010391B0A984201D3000A08391B0998420C
S1132B6001D30009043902A2105C40187047C04622
S1132B700403020201010101000000000000000042
S1132B8010B5002903D1FFF7DDFF203002E0081C57
S1132B90FFF7D8FF10BDC046F0B54F464646D646AF
S1132BA05C00C0B51F03DB0F9A46174B0E034D00A4
S1132BB084468046360B6D0DC90F91463F0B640D5C
S1132BC001209D4208D09C4201D0A5420BD01CBCE0
S1132BD090469946A246F0BD63463343F7D1AC42D2
S1132BE0F5D13A43F3D10120BE42F0D1C845EED12C
S1132BF0514507D0002DEAD163461E433000461EDE
S1132C00B041E4E70020E2E7FF070000F0B54546E5
S1132C10DE4657464E46E0B51F033D0B2C4F0E03D0
S1132C204C00AB465D008446360B640DC90F9046DC
S1132C306D0DDB0FBC422AD0254FBD422DD0002C98
S1132C400FD130430700814678427841C0B2002D4D
S1132C5017D15F463A4314D14B460020002B0AD0CB
S1132C6006E0002D02D15846024301D0994218D003
S1132C704842012108433CBC90469946A246AB46D3
S1132C80F0BD0028F2D00120013B1843F3E73700E0
S1132C900743D1D002204042EDE75F461743CED030
S1132CA0F8E7AC42E4DC03DA481E01210843E2E71A
S1132CB05E45DDD806D000205E45DCD20123481EE7
S1132CC01843D8E7C445D3D80020C445F6D3D2E787
S1132CD0FF070000F0B54E464546DE4657465C0009
S1132CE0E0B51F03DB0F99462A4B0E034D00C90FB5
S1132CF08446360B6D0D8B4690463F0B640D9D420A
S1132D0020D0244B9C4222D0002D12D13043434288
S1132D104341DBB2002C1FD0002B0CD04B460120CA
S1132D20013B034318003CBC90469946A246AB467F
S1132D30F0BD002C16D0CB4517D05B465942012379
S1132D400B43EFE7310002230143EBD1D9E739000C
S1132D5002231143E6D1D7E73A43DDD1002300280B
S1132D60E0D0EAE73A43E6D1E7E7A542E5DC05DB54
S1132D70BE42E2D807D00023BE42D3D25946012333
S1132D8001390B43CEE7C445D7D80023C445F5D356
S1132D90C8E7C046FF07000070B50D4E0D4D002476
S1132DA0AD1BAD1005D0A300F35801349847A542DC
S1132DB0F9D105F005FE084E084D0024AD1BAD10F9
S1132DC005D0A300F35801349847A542F9D170BD4A
S1132DD0CC890000CC890000CC890000D489000093
S1132DE0F0B505000F2A2FD90B0003439B0734D1FC
S1132DF016000C000300103E350901352D0145195C
S1132E0027681F6067685F60A7689F60E768103481
S1132E10DF6010339D42F3D10F239E431036851992
S1132E2089191340032B1AD91E1F0023B408013437
S1132E30A400CF58EF500433A342FAD10324A6438D
S1132E40331D2240C918ED18002A05D00023CC5C9C
S1132E50EC5401339342FAD1F0BD0500F6E71A00B1
S1132E60F2E7C046F0B5830743D0541E002A3FD092
S1132E70CEB20200032502E01A00013C38D3531CF1
S1132E8016702B42F8D1032C2AD9FF220A401502CE
S1132E9015432A0415430F2C14D927001A00103F98
S1132EA03E09013636019E19156055609560D5605E
S1132EB010329642F8D10F2297431037DB19144091
S1132EC0032C0DD91A00271FBE080136B6009E191F
S1132ED020C2B242FCD1032297430437DB191440C9
S1132EE0002C05D0C9B21C19197001339C42FBD1C6
S1132EF0F0BD14000300C6E70FB400B5064983B063
S1132F0004AB086804CB8168019300F06DF903B049
S1132F1008BC04B01847C0460000002030B50400C7
S1132F2089B008000D0000F02DF904AB214A01938B
S1132F300223069201220293A36B059001300495AB
S1132F4007920390A568002B2FD06B6EDB0724D467
S1132F500C23EA5E91B28B051CD580239B01194298
S1132F6005D11343AB816A6E134B13406B6620008B
S1132F7001AA290003F05EF8441EA04144420A203D
S1132F806B6E0443DB0702D4AB899B0509D5200093
S1132F9009B030BDA86D03F007FA0C23EA5E91B2C4
S1132FA0DBE7A86D03F002FAF1E7200002F0BAFEB5
S1132FB0CBE7C046D4850000FFDFFFFF10B5034B0D
S1132FC001001868FFF7AAFF10BDC04600000020EA
S1132FD04A424A41802310B55200DB0000F002F857
S1132FE010BDC046F0B54746CE4680B51F00634BC2
S1132FF083B01D68040088461600002D02D0AB6B18
S1133000002B66D0022E05D0012E00D9A1E0002F9E
S113301000DA9EE0636EDB0733D52100280002F05E
S113302027FE216B002908D023004033994202D0A7
S1133030280002F021FF002323630023A3616360BF
S11330400C22A35E1A063DD44D4A1340A381022EDE
S11330501ED001AB6A462100280003F0A9F9A38918
S11330601843A081002F38D1009F380003F018FACC
S11330708046002800D16FE08022A3891343A381F6
S11330802EE0A3899B05C8D4A06D03F08DF9C4E795
S11330900025022213430022A26022004332226050
S11330A022610122616EA3816261114204D19B05F8
S11330B002D4A06D03F07AF9280003B00CBC90464A
S11330C09946F0BD2169280002F0D6FE0C22A35EC9
S11330D0BAE7280002F026FE94E74346002BC4D04A
S11330E0AB6B002B27D0009B9F422AD08023A28960
S11330F01B0113431BB2A381012E26D0424622603A
S1133100226108229BB267611A400BD0DA0710D5FE
S113311000220125A260626E7F42A7611540C6D0DD
S11331200025C9E7A2600125626E1540BFD00025C5
S1133130C2E7A760F7E7280002F0F4FD009B9F4276
S1133140D4D10C22A35E012ED8D101221343A38132
S1133150D4E701256D42AFE7009B9946BB4205D0F9
S1133160180003F09DF98046002804D101250C22A3
S1133170A35E6D428DE74F467EE7C0460000002007
S11331805CF3FFFF10B5830725D00378002B24D010
S11331900300032102E01A78002A1AD001330B42FB
S11331A0F9D119680E4A0F4C8A188A43224206D173
S11331B0043319680A4A8A188A432242F8D01A004A
S11331C01B78002B03D0013211780029FBD1101A8F
S11331D010BD181AFCE70300E3E70020F8E7C04637
S11331E0FFFEFEFE80808080F0B5DE464E464546FA
S11331F05746E0B5C3B0894614001D000F9306007E
S1133200069003F0BFF8036818001893FFF7BAFF9D
S11332101790002E04D0B36B0793002B00D1A7E0C6
S11332204B465B6EDB0778D44B460C21595E8BB260
S11332309A056ED580229201134209D10A434B4666
S113324049469A81496ECC4B0B4049464B6693B232
S11332501A0767D54A461269002A63D01A221A400F
S11332600A2A00D188E032AB25930023CB4625AF50
S1133270BB607B60079414931693159332AE199335
S11332801A930A93079C2378002B01D100F09EFD2A
S1133290252B03D100F09AFD252B03D0013423788C
S11332A0002BF9D1079BE51A10D0079B756033609A
S11332B0BB685B19BB607B6801337B60072B4CDC0C
S11332C008360A9B9C46AC4463460A932378002B39
S11332D001D100F099FC631C0793002316AAD3774D
S11332E001225242924600220B9220329146203211
S11332F063780021002000249446079A0132079243
S11333001A00203A582A00D9E7E29C4D9200AA58A4
S113331097464B46986D03F047F84B460C21595E8F
S11333208BB287E74946069801F00EFB4B4600280E
S11333303AD05B6EDB0705D44B469B899B0501D4D1
S113334000F0CFFF01235B420A930A9843B03CBCD0
S113335090469946A246AB46F0BD3A0059460698B7
S113336004F0A4F9002801D000F0CEFC32AEA8E7A6
S1133370069802F0D7FC53E74A460E21525E002A13
S113338000DA70E74A46526ED20705D49B0503D48F
S11333904B46986D03F00AF82B0022004946069824
S11333A001F08EFA0A90D0E79B8957E70B9B0F92A6
S11333B05B420B9304231C43079B1B789DE7079BED
S11333C001211B782B2098E7079B5A1C1B789046F9
S11333D02A2B01D101F038FA1A000025303AAA4606
S11333E0092A01D901F06DF925004346544688465F
S11333F08246A1000C1918786400A4180200591C14
S1133400303A0B00092AF4D907910300414650468B
S1133410A2462C0074E71293002901D001F02EFA81
S1133420574B1993A30601D500F09AFEE30601D584
S113343000F09AFD630601D400F096FD0F9B1A88F4
S11334400C92002204330D920F93E30701D400F091
S113345076FD0C990D9A0B0013431A000223002ADF
S113346008D030201EA90870482568464019007805
S11334701C4348700021884616A8C1775146013183
S113348000D1E6E08021200088430990002A00D082
S1133490E3E05246002A01D000F038FC002B01D0B2
S11334A000F00CFD012032AB20400E90119308D0A7
S11334B02723302128AAD15416AA944648336344BA
S11334C0119353460E9A0893924500DA089200230A
S11334D013934346002B02D0089B01330893022325
S11334E0099A1A40914602D0089B02330893842318
S11334F0099A1A40109200D007E20B9B089A9C1A72
S1133500002C00DC01E21F49BA687B688846102C55
S113351021DD310010255E4603E0103C0831102CFB
S113352017DD40461032013308604D60BA607B609D
S1133530072BF2DD3A003100069804F0B7F80028B2
S113354001D000F0CFFC103CBA687B6832A9102C83
S1133550E7DCB3460E00414674600133A4183160C1
S1133560BC607B60072B01DD00F0AEFC16ABDB7F9B
S113357008369846CAE1C046FFDFFFFFD885000041
S113358060870000808700000022079D303BA8462A
S11335900B921A0008942C005546824640468846F1
S11335A01100002293009A18037852008A18190017
S11335B00134303920000929F4D907945046089C75
S11335C00B924146AA469BE60F9A12931368202158
S11335D008936B465B181B7828AD2B70002316A943
S11335E0CB77130004330F930023099498460133D7
S11335F008930E93002311959A4613936FE7129341
S1133600002901D001F04DF90F9AA30601D500F06D
S11336105AFDE30601D500F0ABFC630601D400F0CB
S1133620A7FC0021535E0C930432DB170D930F9219
S1133630002B01DA00F0B2FD0C990D9A08005146F6
S113364016ABDB7F1043984602000123013100D002
S113365018E7002A00D15AE30994012B01D100F0A4
S113366006FC022B00D080E3199C0F20A146B4462F
S113367032AB19000C9A0D9B04004D4614402C5D8E
S11336801E07150901392E430C701C092300340050
S113369032001C43F0D10C920D9332AB5B1A1191A2
S11336A066460E930DE763461C43079B1B7824E68E
S11336B0079B1B786C2B01D100F08CFE1022144365
S11336C01BE6002901D001F0D5F8A30601D500F0CE
S11336D076FEE30600D510E1630600D40DE16946E9
S11336E00F9B098D1A680433089211800F93C9E562
S11336F00F9930220B680C9300230D9302331C4363
S11337001EAB1A7048325A700B0004330F93C14B2E
S1133710129219930C9A0223ACE64B461C43079B66
S11337201B78EAE512930F9B16A91D1D1B681A004E
S113373011930023CB77002A01D100F001FF5346F7
S1133740013301D100F064FE52460021119803F0C8
S113375065F9002801D100F078FF119BC31A1A0003
S11337600E93DB43DB171A4016ABDB7F08929846B7
S113377000230F9509949A461393AAE608231C4341
S1133780079B1B78B9E5129310231C43A30601D5AC
S113379000F0A7FCE30600D5EEE3630600D4EBE3F8
S11337A00F9B1A880C92002204330D920F930C9AEB
S11337B000235FE6129310231C43A30601D500F0F7
S11337C0BAFCE30600D5DAE3630600D4D7E30F9B23
S11337D01A880C92002204330D920F930C9A012341
S11337E048E61293002901D001F057F88A4B199347
S11337F018E601231C43079B1B787EE580231C43AA
S1133800079B1B7879E5079B1B78002800D074E59B
S11338100121203071E51293002901D001F039F81B
S113382007220F9B07339343013294469C4462461C
S11338300F921A6816925B6801221593159B169DC8
S11338405B005B0898465242744B2800414604F0E2
S1133850E7FD002801D000F0B4FC01226F4B524276
S113386028004146FFF750F9002801D000F0A9FCD8
S11338700022002316981599FFF73CF9002801D07F
S113388000F055FD16ABDB7F9846129B472B01DDFC
S113389000F0B4FD624B119380239C437D3B08935D
S11338A00E93002309949A46139312E60F9B1A1D54
S11338B01B680B93002B00DA78E5079B0F921B78AB
S11338C01BE51293002901D000F0CCFF10231C4308
S11338D09AE6129371E7129358E71293002901D0E4
S11338E000F0D3FF129B002B00D18DE128AD2B708B
S11338F0002316AAD377099478E60F9A0A991368D5
S11339001960130004330F93BCE4BC684346002BD6
S11339100FD016AA1F2394466344336001237360B7
S11339207B6801340133BC607B60072B00DD03E25C
S113393008364B46002B0CD01EAB33600223736059
S11339407B6802340133BC607B60072B00DDFDE142
S11339500836109B802B00D173E153460E9A9D1AB2
S1133960002D32DD2F4A7B689146102D22DD102276
S1133970924622005C4603E0103D0836102D17DD08
S1133980494631605146103201337160BA607B6040
S1133990072BF1DD3A002100069803F087FE00288A
S11339A000D08AE1103DBA687B6832AE102DE7DCA6
S11339B0A34614004A466419013332607560BC6042
S11339C07B60072B00DDADE10836099BDB0500D5E4
S11339D0BEE0119B33600E9B9C4673607B6864441D
S11339E00133BC607B60072B00DDA6E00836099B31
S11339F05B074AD50B9B089A9D1A002D45DD0A4AA0
S1133A007B689046102D2FDD1022914622005C46E3
S1133A1010E0C046608700004C870000FFFFEF7F86
S1133A203C8700009087000080870000103D083626
S1133A30102D17DDD14910323160494601337160D0
S1133A40BA607B60072BF1DD3A002100069803F091
S1133A502DFE002800D030E1103DBA687B6832AEFC
S1133A60102DE7DCA346140042466419013324C632
S1133A70BC607B60072B08DD3A005946069803F0CA
S1133A8015FE002800D03FE1BC680B9B08998B42CF
S1133A9000DA0B000A9A94469C4463460A93002C6D
S1133AA000D029E1002332AE7B60FFF7EBFB149BCF
S1133AB0012B00DC03E1119B0134336001237360AB
S1133AC07B68BC6001337B60072B00DDEFE20836C6
S1133AD0189A01333260179A984694466444726087
S1133AE0BC607B60072B00DD18E30836002200234E
S1133AF016981599FEF7F8FF002800D0F4E1119DFF
S1133B00149B0135013B35607360E41801239C4626
S1133B10E0444346BC607B60072B00DDE0E00836F0
S1133B2021AB33601A9B9C46736043466444013363
S1133B30BC607B60072B00DC58E73A0059460698C6
S1133B4003F0B4FD002800D0DEE0BC6832AE4EE7DE
S1133B50129B652BABDD0022002316981599FEF706
S1133B60C3FF002800D134E1854B013433600123C5
S1133B7073607B68BC6001337B60072B00DDDCE392
S1133B8008361F9B149A934203DB099BDB0700D47E
S1133B90B7E3189BBA683360179B9C4673607B68D5
S1133BA0624401331400BA607B60072B01DD00F02E
S1133BB019FC0836149B5D1E002D00DC17E7714AC2
S1133BC07B689146102D00DCC3E110229046220050
S1133BD04C46D94604E00836103D102D00DC7CE349
S1133BE041461032013334607160BA607B60072B48
S1133BF0F1DD3A004946069803F058FD00280BD140
S1133C00BA687B6832AEE7E7BB68D946002B01D0BF
S1133C1000F04CFD00237B604B465B6EDB070DD44C
S1133C204B469B899A0505D55B0601D4FFF78DFBAE
S1133C30FFF788FB4B46986D02F0B8FB4B469B8917
S1133C40F2E70B9B089A9D1A002D00DC85E64D4A8D
S1133C507B689146102D24DD1022210090465C469D
S1133C6032004E4603E0103D0832102D15DD40466B
S1133C701031013316605060B9607B60072BF2DDB0
S1133C803A002100069803F011FD002815D1103DDB
S1133C90B9687B6832AA102DE9DCA346B1460C0052
S1133CA016004A466419013332607560BC607B605B
S1133CB0072B00DD63E208364FE6A146ACE701239B
S1133CC0099A134200D0F6E673607B68119A0133B7
S1133CD001343260BC6098467B60072B00DC1EE731
S1133CE03A005946069803F0E1FC00280CD17B68A1
S1133CF0BC68984632AE13E73A005946069803F07A
S1133D00D5FC002800D1CDE6D94685E7099C012BD6
S1133D1000D148E1022B23D10994002300240C9301
S1133D200D94A1E43A005946069803F0BFFC00281C
S1133D30EAD1BC6832AE48E63A005946069803F028
S1133D40B5FC0028E0D1BC6832AEF2E53A00594631
S1133D50069803F0ABFC0028D6D1BC6832AEF8E577
S1133D600994002300240C930D940C980D99534648
S1133D7032AA91460893B24607E0C0468087000005
S1133D807C87000090870000A1464A0794464B4672
S1133D9065465C1EC6080723CA08354311002A007D
S1133DA003403033237028000A43EDD10C900D9169
S1133DB0089956468A4609994A461194C90700D576
S1133DC0E0E032AB1B1B0E93FFF77BFB079CFFF776
S1133DD07DFA1F98002800DCB9E2139A14991300A5
S1133DE090468B4200DD88464346002B0CDD119B38
S1133DF044443360434673607B68BC6001337B603A
S1133E00072B00DD89E308364346DB434246DB17D4
S1133E101340139AD31A9846002B00DCEBE0102BC6
S1133E2001DC00F0D9FCDC4A7B68914610224D4647
S1133E30924622004446D84604E00836103C102C32
S1133E4000DCBFE051461032013335607160BA6066
S1133E507B60072BF1DD3A004146069803F026FC0F
S1133E60002800D0B6E3BA687B6832AEE6E70D9B63
S1133E70002B00D192E00C9C0D9D32ABB1461E008C
S1133E80200029000A220023FDF7C6FB013E303240
S1133E9032700023200029000A22FDF7BDFB030035
S1133EA004000D000B43EBD1320032AB9B1A119688
S1133EB00C940D954E460E93FFF703FB00230E93CF
S1133EC032AB1193FFF7FDFA3A005946069803F016
S1133ED0EDFB002800D017E716ABDB7FBC689846E3
S1133EE032AE13E5B14697E6149B5D1E002D00DC4F
S1133EF016E6A94B9946102D00DC0AE11023220096
S1133F009A465C46434604E00836103D102D00DC1A
S1133F10FCE0494631605146103201337160BA60A9
S1133F207B60072BF0DD3A002100069803F0BEFB0E
S1133F30002800D0C1E6BA687B6832AEE5E70C9988
S1133F400D9A0800104302230200FFF793FAA346D8
S1133F5014004A466419013332607560BC607B60AA
S1133F60072B00DC42E5E8E50F9B1A68FFF768FAC7
S1133F7013680893FFF757FB0F9B1A6812E40F9B13
S1133F801A6826E4302B00D13CE23023023A137045
S1133F9032AB9B1A0E931192FFF793FA0C9B092BE9
S1133FA000D968E7099C27220C9B28A930338B543D
S1133FB0012316AA94460E936E3363440994119315
S1133FC0FFF77FFAC346A946A04614004A4632606A
S1133FD04246444401337260BC607B60072B00DCC2
S1133FE08DE13A005946069803F060FB002800D0A2
S1133FF08AE6BC6832AE1F9B149A934200DB79E1D7
S1134000189A3260179A944672607A68644401324E
S1134010BC607A60072A00DD76E10836149A1399A9
S1134020D31A521A90469A4200DD98464246002A14
S11340300FDD1399119A8C466244326042467260D5
S11340407A6844440132BC607A60072A00DD89E260
S113405008364246D543ED1715405D1B002D00DCA4
S1134060C5E44D4A7B689146102D00DC71E71022AF
S1134070904622005C4604E00836103D102D00DC1A
S113408065E7494631604146103201337160BA60D8
S11340907B60072BF0DD3A002100069803F006FB55
S11340A0002800D009E6BA687B6832AEE5E73A003A
S11340B05946069803F0FAFA002800D024E6BC68B2
S11340C07B6832AE04E5072307329A4301339C46EA
S11340D0944463460F93536812680D930C92FFF750
S11340E0A7FA07220F9B07339343013294469C445B
S11340F062460F921A685B6811001A0008001043A8
S11341000C910D9200230200FFF7B4F9A3469846E0
S113411014004B46756033606419F7E43A0059465D
S1134120069803F0C3FA002800D0EDE57B68BC686C
S1134130984632AEDAE407220F9B073393430132E9
S113414094469C4462460F921A685B6811001A00F8
S1134150080010430C910D9201230200FFF78AF925
S113416007220F9B07339343013294469C446246D3
S11341700F921A685B680C920D93FFF766F93A0088
S11341805946069803F092FA002800D0BCE5BC68B2
S113419032AEFFF7E2FBC046908700000C980D9901
S11341A0002342428B4111001A002D2316A8C37725
S11341B0080010430C910D92984602002C3BFFF727
S11341C05DF91699159D0A0008002B00290004F0DA
S11341D027F9002800D0C6E25346013300D19FE0FE
S11341E02023129A9A430E92472A00D1A1E18023F8
S11341F05B0023430993159B002B00DAEDE1169A2B
S11342000893002391461093129B662B00D1B8E1CA
S1134210462B00D137E20E9A0698453A13005942CC
S1134220594120AB0D0003931FAB0293022323AA31
S113423055441B92049200930195089B4A4600F052
S1134240ABFC129B1190672B00D00BE2119B98469C
S1134250A844E30700D477E20023002248460899E3
S1134260FEF742FC434600280AD1239B434507D26C
S1134270302140465A1C23921970239B9842F9D846
S1134280119A9B1A14930E9B472B00D1D0E0129BDA
S1134290652B00DCD5E2129B662B00D1C6E11F9B87
S11342A01393149B139A1900914200DDA0E1E307D4
S11342B000D542E2D343DB1711001A40672308926A
S11342C00E911293109B002B00D0A9E016ABDB7F5C
S11342D0984600239A46FFF7FCF8CB46A146140003
S11342E037E64B46986D02F061F801235B420A936E
S11342F0FFF72BF8099AD20700D48FE680E6083638
S113430079E6BC68FFF773FB3A005946069803F058
S1134310CDF9002800D0F7E41F9BBC6832AE7DE6DF
S11343202023129A9A431A3B0E929A465FE72D2352
S113433016AAD3779846FFF7A8FA3A005946069882
S113434003F0B4F9002800D0DEE432AE19E4E34B04
S113435001343360012373607B68BC6001337B608C
S1134360072B00DD55E10836002807D1149B002BEC
S113437004D1099BDB0701D4FFF739FB189B336099
S1134380179B191973607B68B96001337B60072B35
S113439000DDC4E132000832002800DA95E111980A
S11343A00133106014987B6044185060BC60072B84
S11343B001DDFFF7C2FB08321600FFF718FB0F9967
S11343C00A9A0B681A60D2175A600B0004330F93D1
S11343D0FEF758FF4B46079A1C43013213780792A5
S11343E0FEF78BFF3A005946069803F05FF9002860
S11343F000D089E4BC6832AEFFF7DCFBB84B119304
S1134400FFF74AFA119A32AB9B1A0E93FFF759F849
S11344101198FEF7B7FE02000E900300FFF7A1F912
S11344202D2316AAD377984600239A46FFF754F80B
S11344301F9B1393DA1C02DB9A4500DB31E7129BC6
S1134440023B12932C22139B48215D1E16AB9B1832
S11344506A46521812781F951A70002D00DACBE1C3
S11344602D212B2316AA52181370092D00DC6DE19F
S113447016AA3B23944663449A46B146A046564640
S113448000E0260028000A2103F0B6FC741E303137
S1134490217028000A2103F0C9FB05000928F0DC7B
S11344A023004446B0464E46994603003033D8B202
S11344B04346023B18709A4500D8F6E142461B9BDE
S11344C04546991A012307315B4201E0E85C013358
S11344D021AAD218D0708B42F8D116A98C462E226C
S11344E04B4662449446FB1A634421AA14999B1ACE
S11344F09C460A0062441A930E92012900DC70E182
S1134500179A0E9B944663441A000E93DB43DB1701
S11345101A40002308921393D4E63A0059460698A9
S113452003F0C4F8002801D0FFF7EEFBBC6832AEFC
S11345306AE45346002B00D059E601339A4656E606
S113454053460893062B01D906230893089B0F951D
S11345500E93002398469A461393624B0994119341
S1134560FEF7BDFF3A005946069803F09FF800286D
S113457001D0FFF7C9FB149B1F9ABC689B1A32AE8B
S113458067E523AB1B93049320AB03931FAB029308
S11345905346019303234A4600930698089B00F070
S11345A0FBFA03005344984655461190119B1B781F
S11345B0302B02D01F9B98444EE60022002348462D
S11345C00899FEF791FA0028F4D101235B1B1F938D
S11345D0984441E6C146FFF71FFB80221206944629
S11345E0169B9946159B634408932D2310930BE661
S11345F0179A149B9446139A63440E93002A00DC82
S1134600E3E01A00DB43DB171A4067230892129396
S113461058E63A005946069803F048F8002801D0B5
S1134620FFF772FB1F98BC6832AE9DE61F9B139385
S1134630002B00DCF2E05246002A00D0A0E0E207A2
S113464000D59DE008930E933CE616ABDB7F0F95F7
S11346509846534608930E93002309949A4613935D
S1134660FEF737FF119B9846129BA844472B00D0B6
S1134670F2E5E30700D4DCE0119B9846129BA844C2
S1134680462B93D0E8E523AB1B93049320AB039311
S11346901FAB02935346019303234A4600930698A3
S11346A0089B00F079FA55461190E5E73A0059461F
S11346B0069802F0FBFF002801D1FFF7ABFAFFF7E1
S11346C0ABFA42460792FEF71BFE4442103000DB71
S11346D0D8E00548102605000CE0C0467C870000A1
S11346E04087000074870000908700000832103C67
S11346F0102C51DD1031013315605660B9607B60B8
S1134700072BF3DD3A005946069802F0CFFF002844
S113471001D0FFF7F9FAB9687B6832AAE7E73A00F3
S11347205946069802F0C2FF002801D0FFF7ECFAC0
S11347301F98B9687B6832AA2EE6179A139B944691
S113474063441A000E935DE7239B99E52E213023E1
S113475016AA521813702B0016AA013130335218BE
S1134760137022ABC1E6159B002B52DB16ABDB7F2B
S11347709846129B472B48DC4E4B1193FFF78CF85D
S1134780179A139B9446634453441A000E93DB43D5
S1134790DB171A40089295E5A946484609190133E2
S11347A010605460B96008327B60072B00DCF6E5CA
S11347B03A005946069802F079FF002801D0FFF725
S11347C0A3FAB9687B6832AAE9E50E9B139A981A92
S11347D0431C1A000E9315E7374A7B689146FFF78E
S11347E0F5FB01232340139300D089E60E9AD343AB
S11347F0DB171A40089265E50123139A1B399D1AA9
S113480016AA2C33521813702FE62C4B1193FFF772
S113481043F82D2316AAD3779846AAE75346002BCC
S113482001D1E30703D5179B581C0300ACE7012310
S113483008E7239B119A9B1A14930E9B472B00D1D4
S1134840F6E51F9B1393FDE50F9B1D1D1B68A846F2
S11348509A46002B0ADB4546079B0F955B78079227
S1134860FEF74BFD16ABD877FFF730F801235B4218
S11348709A46F0E716ABD877FEF727FF16ABD87742
S1134880FEF7CEFD0C48814687E716ABD877FFF7D5
S113489029F816ABD877FEF7C3FF16ABD877FEF727
S11348A0A5FF16ABD877FEF7AFFE16AA2E239446C3
S11348B063441AE64487000090870000488700009C
S11348C0F0B5150002221E4C1F008B89A5449343AA
S11348D06A4693814B6E06001993CB8916A8D3813F
S11348E0CB690C0007934B6A09931AAB00930493AA
S11348F08023DB00029305930023069301F050FD0F
S11349002A003B0069463000FEF76EFC051E05DBFD
S11349106946300001F0ACF900280ED16B469B8942
S11349205B0603D54022A3891343A381169801F0A3
S113493039FD2800034B9D44F0BD01256D42EDE790
S113494094FBFFFF6C040000334B70B5050018683E
S11349500C00002802D0836B002B3CD00C23E25EB9
S113496093B219070DD52169002915D0DA0721D58D
S11349700023A360636900205B42A361002921D066
S113498070BDD9063FD55B0728D42169082313439A
S1134990A3819BB20029E9D1A0228020920080004B
S11349A01A408242E2D02100280001F031FDA3899F
S11349B02169DBE700229B0700D46269A260002022
S11349C00029DDD10C22A35E1A06D9D54022134357
S11349D0A3810138D4E701F0A5F9BFE7216B0029D1
S11349E00AD023004033994204D0280001F044FA4D
S11349F00C23E25E0023236324239A4300232169CA
S1134A0063602160C2E709232B60402301201A431D
S1134A10A2814042B4E7C04600000020034B10B519
S1134A20002B02D0024800F005F810BD0000000081
S1134A30A55D000010B5010000230022002002F053
S1134A4053FE10BDF0B545468046DE4657464E46F9
S1134A504246E0B50C69126985B00B000291002052
S1134A60944200DD90E014229446634499464A46F9
S1134A70013CA300D6181422424493469B44336855
S1134A801500591C5B4618680192FCF739FD031E9A
S1134A90009042D0290000274D460020B146A2468E
S1134AA03E0004009C462F0008000395634604CF93
S1134AB015042D0C5D43120C5A43AD192B0CD2185E
S1134AC003682D041904090C0919160C2D0C120481
S1134AD0491B120C1B0C9B1A0A149B1809041C1466
S1134AE0090C1B04194302C0B945DFD2039B4E468F
S1134AF099465B461B685446002B0ED15B46019ACF
S1134B00043B9A4204D306E0043B013C9A4202D29D
S1134B1019680029F8D043461C610299404602F006
S1134B2051FA00282FDB4F460020009B019D0133E2
S1134B3000932B6802CF1A04120C10180A04120CEA
S1134B40821A090C1B0C5B1A11145B18120418143A
S1134B50120C1B04134308C5BE42EAD20199A300F8
S1134B608C4663441A68002A0DD1043B0A0099421A
S1134B7004D306E0043B013C9A4202D2196800299E
S1134B80F8D043461C61009805B03CBC9046994659
S1134B90A246AB46F0BDC046F0B557464E46454624
S1134BA0DE46E0B5016C99B082461D0016001F0078
S1134BB0002909D00123426C93404A608B6001F0C4
S1134BC0F5FF002352461364B846002F37DB002359
S1134BD0259A13604246D64B1A409A4218D00022B6
S1134BE0002330003900FDF77FFF00282FD0012378
S1134BF0249A1360269B002B00D12AE2CD4818602A
S1134C00013819B03CBC90469946A246AB46F0BD6B
S1134C10C94B249A1360002E0BD14346180308D1C4
S1134C20269BC648002BECD003000833269A136059
S1134C30E7E7269BC248002BE3D0C31CF6E7012319
S1134C40259A68001360430898461F00C2E716AB14
S1134C50019317AB009332003B00504602F068FA10
S1134C60434683461A0D00D1D6E13B03B54C1B0BDA
S1134C701C43B54B30009846169B210099460023EF
S1134C8090440F930022B14BFDF75AFBB04AB14B4D
S1134C90FDF7D6F8B04AB14B03F0B2F80400404631
S1134CA00D00FDF797FEAE4AAE4BFDF7C9F80200C2
S1134CB00B002000290003F0A3F804000D00FDF709
S1134CC055FE00220390002320002900FDF712FF67
S1134CD0002800D0B1E20123039C0C93162C10D8B9
S1134CE0A149E300C9183200086849683B00FDF790
S1134CF015FF002800D11DE32300013B039300238B
S1134D000C934B4642469A1A002306931300013B28
S1134D10049300D5A1E2039B002B00DA84E29C46B5
S1134D200D930023049A9946110061440491229B37
S1134D30092B00D98FE10124052B02DD0024043B5B
S1134D402293229B032B01D100F0CEFC01DC00F066
S1134D5092FC229B042B01D100F040FC01230B9315
S1134D60229B052B01D000F08BFC239A039B9446D5
S1134D7063440E93013307931D1E01DC00F049FDCB
S1134D80079B98460023524600215364172D0AD9E5
S1134D90012204335B0018001430110001328542F3
S1134DA0F8D253465964504601F0D8FE534618646D
S1134DB043460A900E2B00D961E1002C00D15EE13C
S1134DC010961197039E002E01DC00F025FD3200A1
S1134DD00F21654B0A40D2009B1836111C685D6890
S1134DE0F30601D400F0CAFC604B0E401A6A5B6AF9
S1134DF010981199FCF7F0FC032398460890099148
S1134E00002E11D0594F0123334209D09C463A68F1
S1134E107B6820002900E044FDF712F804000D002F
S1134E2076100837002EEED12200089809992B003D
S1134E30FCF7D2FC06000F000C9B002B09D00022CB
S1134E40404B30003900FDF755FE002801D000F03A
S1134E50C2FD4046FDF7BEFD32003B00FCF7F0FF0B
S1134E600022434B02F0CCFF424A0B0094466344B9
S1134E70089009910993079B002B01D100F050FC85
S1134E80039B1393079B12930B9B002B01D100F000
S1134E901DFD129B00205A1E334BD2009B181A682A
S1134EA05B683549FCF798FC089A099BFDF748FABA
S1134EB00890099139003000FDF758FD0400FDF712
S1134EC089FD02000B0030003900FDF739FA0500B6
S1134ED00E000A9A3034511CE7B214911770330053
S1134EE0089809992A00FDF719FE002801D000F05E
S1134EF0FEFD2A00330000201249FDF721FA0200CA
S1134F000B0008980999FDF709FE002801D000F06C
S1134F10E7FD129B012B01D100F078FC0A9A129B49
S1134F209446634498464B461293149B994638E042
S1134F300000F07F7D8700000F270000A08700009D
S1134F40AC8700000000F03F01FCFFFF0000F83FC9
S1134F5061436F63A787D23FB3C8608B288AC63F7B
S1134F60FB799F501344D33FD8870000B0870000DB
S1134F7000001C400000C0FC0000E03F2A00330099
S1134F800020B949FDF7DCF9089A099BFDF7B2FD49
S1134F90002801D000F074FDA146444501D100F081
S1134FA033FC089809990022B04BFCF749FF002212
S1134FB0AE4B0890099128003100FCF741FF0D0029
S1134FC00400FDF7D3FC0700FDF704FD02000B000D
S1134FD020002900FDF7B4F94B463037FFB25C1CC2
S1134FE01F70089A099B05000E00FDF783FD002839
S1134FF0C4D0139B03935946504601F0D7FD0023B8
S11350002370039B249A01331360269B002B00D149
S1135010A8E31C600A98F4E5169B9946179B4B4439
S11350201C00934BE318202B00DC7EE13100914AF5
S11350304046A218D1400A004021CB1A98401043A0
S1135040FDF70AFD631E984601238B4D0F93491902
S113505018E68A48D5E50023524600215364504699
S113506001F07CFD5346186401235B4207930E93C1
S1135070023300220B9300230A9023922293179B5E
S1135080002B00DAABE0039A0E2A00DDA7E07C4B8C
S1135090D2009B185C681B6804930594239B002B27
S11350A000DAA7E2049C059D300022002B003900A1
S11350B0FCF792FBFDF75AFC8046FDF78BFC2200BF
S11350C02B00FCF7BDFE02000B0030003900FDF799
S11350D037F943460A9A30331370079B06000F00D2
S11350E0541C012B4ED00022604BFCF7A9FE002279
S11350F0002306000F00FDF7F7FC002800D07AE734
S11351000A9B079A9D1C9C465B4606935346624441
S1135110AA46049C059D914607930FE00022534B39
S1135120FCF78EFE01239C460022002306000F009C
S1135130E244FDF7D9FC002800D0D9E222002B007C
S113514030003900FCF748FBFDF710FC8046FDF702
S113515041FC22002B00FCF773FE02000B00300020
S11351603900FDF7EDF853464246013B3032060064
S11351700F00D3461A70D145D0D1069B54469B46A6
S1135180079B9A4632003B003000390002F038FE9B
S113519006000F0002000B0004980599FDF7AAFC15
S11351A000280CD10498059932003B00FDF79CFCC3
S11351B0002800D11FE74346DB0700D41BE7651E28
S11351C02F780A9B06E09D4200D151E3023C2778E8
S11351D02C00013D392FF6D001372F700BE70B9AC5
S11351E0002A4FD0229A012A00DC2CE2079B5C1E85
S11351F04B46A14500DAB8E21C1B079B002B00DAE2
S1135200D4E3069B0893079B069A012194469C4489
S113521062460692049A504694469C44634604931C
S113522001F05CFD804632E0069A039BD21A5B4291
S11352309946002306920D9379E50398FDF7CAFB7E
S11352400B00020029002000FDF74EFC0200504232
S11352505041039B1B1A03933DE501239B1A0693BC
S11352600023049357E5C0460000F03F00002440AB
S11352703204000012040000000010FE7C870000CD
S1135280D8870000069B4C4608930023984608994B
S11352900B1E0EDD049A002A0BDD934200DD87E12C
S11352A0069AD21A0692089AD21A0892049AD31A23
S11352B004934B46002B1AD00B9B002B00D1BBE16F
S11352C0002C10DD41462200504601F0BBFD5A4639
S11352D001008046504601F00BFD0500594650463A
S11352E001F064FCAB464B461A1B00D0A5E101213A
S11352F0504601F0F3FC0D9B8146002B1DDD1A0086
S11353000100504601F09EFD229B8146012B00DCEA
S113531050E100244B461B6903339B004B445868FF
S113532001F094FC20231B1A10E020223000D31A31
S1135330984085E600230C93E3E4229B0024012B90
S113534000DC8BE10D9A0123002AE3D104991F208C
S11353508C466344184000D1AEE020231B1A042B72
S113536000DCCCE31C23181A069B9C468444634649
S11353700693089B9C46844463468C468444089365
S113538063460493069B002B05DD59461A005046DC
S113539001F0B8FD8346049B002B05DD49461A0045
S11353A0504601F0AFFD81460C9B002B00D094E0E9
S11353B0079B002B00DC75E10B9B002B00D1A6E0C2
S11353C0089B002B05DD41461A00504601F09AFD6A
S11353D0804643460C93002C00D050E2079C0A9A66
S11353E0013C23009446634408930123334007930C
S11353F04B4606930C9B574645465E469246984656
S1135400069B300019009946FFF71CFB03000B9024
S1135410303329003000049301F0D4FD49460400E0
S11354204246380001F0E8FDC3688146002B00D0F5
S11354301EE10100300001F0C5FD834649463800F5
S113544001F0B4FB5B46229A134303D1079B002B64
S113545000D106E3002C00DAA8E1229B1C4303D10F
S1135460079B002B00D1A1E15B46002B00DD82E20B
S1135470694652465346097C5C1C1170089A524591
S113548000D18AE2310000230A22380001F098FB9F
S1135490002306000A2229003800454500D1E1E036
S11354A001F08EFB4146050000230A22380001F07A
S11354B087FBA2468046A3E71C20069B9C468444A7
S11354C063460693089B9C46844463460893049B66
S11354D09C4684446346049354E74946584601F085
S11354E071FD002800DB63E7039B5946013B0393EE
S11354F00A220023504601F063FB0B9B8346002BDA
S113550000D0CAE20E9B002B00DCD8E207930A9B72
S11355105D460024079F9B4606E0290000230A22DB
S1135520504601F04DFB050049462800FFF78AFA72
S11355305B46303018550134BC42EEDBAB46060006
S1135540079C002C00DC37E20A9B00279C4664443D
S113555059460122504601F0D5FC4946834601F0E4
S113556031FD002800DC44E1651E2B780A9A06E030
S1135570954200D1B1E0023C23782C00013D392B47
S1135580F6D001332B704946504601F00FFB4346D9
S1135590002B00D12FE5002F05D0474503D039005B
S11355A0504601F003FB4146504601F0FFFA22E564
S11355B0130075E6002E00D0ABE63B030024002B5D
S11355C000D0BFE6BA4B3B4200D1BBE6069B013498
S11355D001330693049B01330493B3E601230B9335
S11355E0239B002B00DCD1E01D0098460E9307930B
S11355F0FFF7C8FB079B002B00DD53E500D0ADE0AF
S1135600049805990022AB4BFCF71AFC3B003200CE
S1135610FDF78EFA002399469846002855D0239B1F
S11356200A9CDB4303934946504601F0BFFA4346C4
S1135630002B00D1DFE4B6E74A465946504601F054
S113564001FC834653E60F9A002A00D1B6E19A4A38
S11356504C469446069A63440892D5E5002E00D041
S113566070E6AAE701F0ACFAA24605008046C7E658
S113567001239B46E2E600230B93229B022BAFD02F
S11356800024534621005C64504601F067FA5346F7
S1135690186401235B4207930E9302330A90239408
S11356A00B93ECE4229B022B00DC85E6079B002B8A
S11356B0B5D149460522504601F082FA81460100DF
S11356C0584601F07FFC0028A9DD31230A9A1370A3
S11356D0039B541C01330393A5E7039B0A9A0133EC
S11356E00393312313704EE700230B93FFF73DFB25
S11356F0069B5C469B46079B9A467CE44046FDF726
S113570069F932003B00FCF79BFB00226B4B02F073
S113571077FB6B4A0B009446634408900991099304
S11357200022644B30003900FCF70AFE089E099FF2
S113573032003B0004000D00FDF7F0F9002800D012
S1135740B2E0802000068446390061440B00320038
S113575020002900FDF7CEF9002857D000239946F0
S113576098465CE70A98FFF74CFAE21A0D9BA146AB
S11357709C469444634600240D933EE5109A119B85
S11357800892099302239846FFF73AFB00235246F6
S113579000215364504601F0E1F953461864012393
S11357A00A90079323930E93FFF707FB43460C934A
S11357B05B46069AA846B3465546049E9146BA46A9
S11357C0002B10DD59460122380001F09BFB4946AD
S11357D0834601F0F7FB002800DC57E1392E00D1A5
S11357E022E10B9E31360C9B47466C1C2E7098466A
S11357F0C9E6002803D1F30701D5B5E61C00631EF2
S11358001A78302AFAD0BEE6129B9946109E119F50
S113581035E40125FFF7B4FA039B002B00D1D4E053
S1135820109811995C420F23264A2340DB00D318B9
S11358301A685B68FCF704FB241106000F00002CB7
S113584000D149E1022398461F4D0123234209D088
S11358509C462A686B6830003900E044FCF7F0FA93
S113586006000F0064100835002CEED1FFF7E4FAAF
S1135870039B30270133039330232B70ACE4596826
S1135880504601F06BF94346414604001B690C3154
S11358909A1C92000C30FDF7A3FA01222100504615
S11358A001F030FB0C9099E50023994698460CE7EB
S11358B00000F07F000014403304000000001C408E
S11358C00000C0FCD8870000B0870000129B8F49FD
S11358D0013BDB00C91808684968089A099BFCF772
S11358E0AFFA1490159139003000FDF73FF8050028
S11358F0FDF770F802000B0030003900FCF720FDC2
S1135900129B089009910A991A008C46303562441A
S11359104C1C0D709046012B1BD00898099925004A
S113592000227B4BFCF78CFA0F000600FDF71EF8F3
S11359300400FDF74FF8303402000B00300039004A
S1135940FCF7FEFC2C700135A845E9D144460890CB
S113595009911498159900226E4B02F051FA089A95
S1135960099BFDF7C7F8002867D0139B651E0393B6
S11359702F780A9B2EE44346B3460C93049E069B61
S1135980A84699465546BA46392E4DD00C9B013649
S113599047466C1C2E709846F5E54246069BB34676
S11359A0BA46049E99462F009046D1E5069B079A75
S11359B09B1A0893002327E40124C5E53623169A8D
S11359C04C469B1A069A08921EE40223109E119FCD
S11359D09846FFF731FA079B002B00D18EE60E9C08
S11359E0002C00DC12E7039B0022013B13933000E0
S11359F0474B3900FCF724FA060040460F000130FB
S1135A00FCF7E8FF32003B00FCF71AFA0022424B95
S1135A1002F0F6F9414A0B00944663440890099158
S1135A2012940993FFF730FA39232B700C9B4746E5
S1135A306C1C98460A9A3923A1E5149A159B0020F8
S1135A403449FCF77DFC089A099BFDF767F80028A8
S1135A5001D1DBE61C00631E1A78302AFAD0FFF766
S1135A60C8FA4346B3460C93049E069BA84699463F
S1135A705546BA46392ED7D0002C00DDB1E6B2E641
S1135A80139A4D4603920A9BFFF7A4FB002800D00B
S1135A90A9E6F30700D4A6E6A0E6002341460A22BD
S1135AA0504601F08DF80E9B8046002B01DD0793D4
S1135AB086E4229B022B1FDC0E9B079380E4229B2F
S1135AC0022B19DC4946FEF7BDFF0A9B30301870E3
S1135AD00E9B0600079333E502239846FFF7ACF9C3
S1135AE0139B149C03930A9B1D00FFF773FB139BEA
S1135AF0149C0393FFF77FFA0E9B0793D6E5042BC0
S1135B0000D13FE43C23181AD7E4C046D8870000EC
S1135B10000024400000E03F00001C400000C0FCE6
S1135B20F0B5C64600B50C23CA5E804693B20C009D
S1135B30190740D480231B0113436268A381002A00
S1135B4000DC70E0A66A002E31D04246414615685A
S1135B5000229BB20A60DA0400D469E0226D5B077C
S1135B6006D56368D21A236B002B01D0E36BD21ADB
S1135B700023E1694046B047431C3DD0A3893A4A1B
S1135B8013400022626022691BB2A3812260DB04FD
S1135B9047D44346216B1D60002908D023004033BD
S1135BA0994202D0404600F067F9002323630020A5
S1135BB004BC9046F0BD2669002EF8D02268266009
S1135BC0951B00229B0700D16269A260002D04DCB2
S1135BD0EDE736182D1A002DE9DD2B003200E169BE
S1135BE04046676AB8470028F3DC40220120A389B5
S1135BF040421343A381DBE7434619681D29F4D8C7
S1135C001A4B0122CB409A43EFD1A389164E62600E
S1135C10334022691BB2A3812260DB04B9D5002979
S1135C20B7D12065B5E7E26B002A00DD8AE7BEE75D
S1135C3000220123E1694046B0470200431C02D020
S1135C40A389A66A8BE743461B68002BF8D01D2B5B
S1135C5001D0162B03D1434600201D60A8E7402144
S1135C60A3890B43A381A3E7FFF7FFFF01004020B3
S1135C7070B505000C00002802D0836B002B16D0F1
S1135C800C22A35E0026002B0FD0626ED20701D433
S1135C909B0513D521002800FFF742FF636E060021
S1135CA0DB0702D4A3899B0504D5300070BD00F046
S1135CB039F8E5E7A06D00F079FBF6E7A06D00F098
S1135CC073FBE7E710B5024900F036FB10BDC04690
S1135CD059780000002310B504000360436083601A
S1135CE081814366C281036143618361082200218B
